:020000040800F2
:10000000E8AB0024A1030008F1780008A5720008FD
:10001000ED7800082705000879B800080000000006
:10002000000000000000000000000000E1020008E5
:1000300057090008000000003D030008F17F000898
:10004000BB030008BB030008BB030008BB03000898
:10005000BB030008BB030008BB030008BB03000888
:10006000BB030008BB030008BB030008110600081F
:100070002106000831060008410600085106000864
:10008000BB030008BB030008BB030008C10900084C
:10009000310A0008BB030008BB030008BB030008CB
:1000A000BB030008BB030008BB030008BB03000838
:1000B000BB030008BB030008BB030008BB03000828
:1000C000BB030008BB030008BB030008BB03000818
:1000D000757E0008BB030008BB030008BB030008D3
:1000E000BB030008BB03000800000000BB030008BE
:1000F000BB030008BB030008BB030008BB030008E8
:10010000BB030008BB030008BB030008BB030008D7
:10011000BB030008BB030008BB030008C181000843
:10012000BB030008BB030008BB030008BB030008B7
:10013000BB030008BB030008BB030008BB030008A7
:1001400000000000000000000000000000000000AF
:10015000BB030008BB030008BB030008BB03000887
:10016000BB030008BB030008BB030008BB03000877
:10017000BB030008F5780008BB030008000000007E
:10018000BB030008BB030008BB030008BB03000857
:10019000BB030008BB030008BB030008BB03000847
:1001A000BB030008BB030008BB03000800000000FD
:1001B000BB030008BB030008BB030008BB03000827
:1001C000BB030008BB0300080000000000000000A3
:1001D0000000000000000000BB0300080000000059
:1001E000000000000000000000000000000000000F
:1001F0000000000000000000BB030008BB03000873
:10020000BB030008BB03000800000000BB0300089C
:10021000BB030008BB030008BB030008BB030008C6
:10022000BB03000800000000BB0300080000000042
:10023000BB030008BB03000800000000BB0300086C
:10024000BB030008BB030008BB030008BB03000896
:10025000BB030008BB030008BB030008BB03000886
:10026000BB030008BB030008BB030008BB03000876
:10027000BB030008BB030008BB030008000000002C
:10028000BB030008BB030008BB030008BB03000856
:1002900000000000BB030008BB03000800000000D2
:1002A00000000000BB030008BB030008BB030008FC
:1002B000BB030008BB030008BB030008BB03000826
:1002C000BB030008BB030008BB030008DFF80CD029
:1002D00000F0ECF80048004775C10008E8AB0024C6
:1002E0002C4B19680868B0E8F04F80F30988BFF319
:1002F0006F8F4FF0000080F31188704700000000FE
:1003000008480068006880F308884FF0000080F318
:10031000148862B661B6BFF34F8FBFF36F8F00DFF3
:1003200000BF00BF08ED00E0DFF80C00016841F4F9
:1003300070010160704700BF88ED00E0EFF30980B5
:10034000BFF36F8F134B1A681EF0100F08BF20ED1C
:10035000108A20E9F04F106009B44FF0500080F38C
:100360001188BFF34F8FBFF36F8F0CF04FFC4FF02E
:10037000000080F3118809BC19680868B0E8F04FE4
:100380001EF0100F08BFB0EC108A80F30988BFF38D
:100390006F8F704724000024EFF305807047000042
:1003A0000648804706480047FEE7FEE7FEE7FEE70F
:1003B000FEE7FEE7FEE7FEE7FEE7FEE7E180000876
:1003C000CD0200082DE9F05F0546002092469B46CD
:1003D00088460646814640241BE02846414647465B
:1003E000224600F053F853465A46C01A914110D3A2
:1003F00011461846224600F03AF82D1A67EB01081C
:100400004F4622460120002100F031F817EB000989
:100410004E41201EA4F10104DFDC484631462A4645
:100420004346BDE8F09F40EA01039B0703D009E083
:1004300008C9121F08C0042AFAD203E011F8013BD0
:1004400000F8013B521EF9D27047D2B201E000F829
:10045000012B491EFBD270470022F6E710B5134668
:100460000A4604461946FFF7F0FF204610BD202A31
:1004700004DB203A00FA02F1002070479140C2F1FB
:10048000200320FA03F3194390407047202A04DB2D
:10049000203A21FA02F00021704721FA02F3D040FD
:1004A000C2F120029140084319467047064C074D9F
:1004B00006E0E06840F0010394E807009847103434
:1004C000AC42F6D3FFF706FFCCD40008ECD400080A
:1004D00070B58C1810F8015B15F0070301D110F806
:1004E000013B2A1106D110F8012B03E010F8016B33
:1004F00001F8016B5B1EF9D12B0705D40023521EB6
:100500000DD401F8013BFAE710F8013BCB1A921C1D
:1005100003E013F8015B01F8015B521EF9D5A1421B
:10052000D8D3002070BD00BFFEE70346042B15D0D2
:1005300007DC7BB1012B0ED0022B0DD0032B12D187
:100540000BE0202B0BD0212B0AD0222B09D0232B00
:1005500009D107E008E007E006E005E004E003E079
:1005600002E001E000E000BF00BF00207047002073
:100570007047000010B500220449054808F0ADFF9F
:100580000449034808F09AFF002010BD788E00242B
:100590009C8100247886002430B599B004460D462D
:1005A000642221466846FFF73EFF297868460BF033
:1005B00055FD2146044808F081FF034808F04AFF32
:1005C000002019B030BD00009C81002410B5034606
:1005D0000C460021084610BD2DE9F04104460D46A9
:1005E00000260A48D0F8BC72D7F8140210B10120D6
:1005F000BDE8F0812A462146044808F06EFF034812
:1006000009F01EF806463046F2E700009C810024FF
:1006100010B5024800F072FD10BD0000F80600247D
:1006200010B5024800F06AFD10BD000070070024FC
:1006300010B5024800F062FD10BD0000E80700247C
:1006400010B5024800F05AFD10BD0000000400245F
:1006500010B5024800F052FD10BD000078040024DF
:100660000146374A0868904249D0354A183208682E
:10067000904244D0324A3032086890423FD0304AEB
:100680004832086890423AD02D4A60320868904259
:1006900035D02B4A78320868904230D0284A9032C0
:1006A000086890422BD0264AA8320868904226D08B
:1006B000244A0868904222D0224A183208689042A0
:1006C0001DD0204A30320868904218D01D4A483266
:1006D0000868904213D01B4A6032086890420ED0DE
:1006E000184A78320868904209D0164A9032086851
:1006F000904204D0134AA8320868904201D10120E8
:1007000000E00020B0B10A78103A1823B2FBF3F0F1
:1007100000F007020C4B9A5CCA65032805D90A68E9
:100720006FF30902121D8A6503E00A686FF309027C
:100730008A6503E0086820F0FF008865886D7047CF
:100740001000024010040240ECD2000810B502680C
:100750002B4C0368A34222D0294C14340368A342D3
:100760001DD0274C28340368A34218D0244C3C34B5
:100770000368A34213D0224C50340368A3420ED026
:100780001F4C64340368A34209D01D4C78340368BD
:10079000A34204D01A4C8C340368A34201D1012334
:1007A00000E000238BB10378083B1424B3FBF4F181
:1007B000144B03EB81030366124B8033436601F055
:1007C0001F040123A340836618E00378103B18241C
:1007D000B3FBF4F10C4B9A4204D80B4BA83B9A4262
:1007E00000D30831094B03EB81030366074B8033C9
:1007F000436601F01F040123A340836610BD00007F
:100800000854025800580258B80402400008024038
:100810000179A9B3082940D8204B02689A4222D016
:100820001E4B143302689A421DD01C4B28330268B9
:100830009A4218D0194B3C3302689A4213D0174B96
:10084000503302689A420ED0144B643302689A42C5
:1008500009D0124B783302689A4204D00F4B8C3384
:1008600002689A4201D1012200E000224AB14A1EE8
:100870000B4B03EB8202C266094A4032026708E072
:100880000BE04A1E074B03EB8202C266054A403268
:1008900002674A1E01239340436770470854025879
:1008A0000059025800090240014600208A69D2B965
:1008B0008A6A32B1012A0DD0022A03D0032A10D14C
:1008C0000EE000BFCA6A02F08072B2F1807F00D1F0
:1008D000012007E0CA6AB2F1C07F00D1012001E027
:1008E00000E000BF36E08A69B2F5005F1BD18A6A7A
:1008F00032B1012A07D0022A03D0032A11D10AE01B
:1009000000BF01200EE0CA6A02F08072B2F1807F5F
:1009100000D1012006E0CA6AB2F1C07F00D10120F7
:1009200000E000BF16E08A6A32B1012A05D0022A2F
:1009300004D0032A0CD103E000BF00BF012008E06F
:10094000CA6A02F08072B2F1807F00D1012000E01B
:1009500000BF00BF7047704772B600BFFEE70000DF
:1009600000B589B000200190029002200390012080
:10097000049000200590069001A9104801F075FC34
:1009800008B1FFF7E9FF002003460222114600905C
:100990000A4801F0BEFC08B1FFF7DEFF002201218A
:1009A000064801F0C5FB08B1FFF7D6FF034802F087
:1009B00003FA08B1FFF7D0FF09B000BDB001002471
:1009C00010B5024801F0BEFD10BD0000B0010024CA
:1009D00000B589B000200190012002900220039010
:1009E000049000200590069001A9104801F03DFCFC
:1009F00008B1FFF7B1FF0020034602221146009024
:100A00000A4801F086FC08B1FFF7A6FF002210217A
:100A1000064801F08DFB08B1FFF79EFF034802F086
:100A2000CBF908B1FFF798FF09B000BD50020024D0
:100A300010B5024801F086FD10BD000050020024F0
:100A400010B501464A6B0868D0F884004FF6FC7474
:100A5000A04340EA82000C68C4F884000868D0F81B
:100A6000840020F47F04088F44EA00400C68C4F836
:100A70008400886B02440868D0F888004FF6FC7444
:100A8000A04340EA82000C68C4F888000868D0F8E7
:100A9000880020F4FE04888F44EA00400C68C4F803
:100AA0008800C86B02EB40020868D0F8A0004FF63F
:100AB000FC74A04340EA82000C68C4F8A0000868F7
:100AC000D0F8A00020F4FE044020405A44EA004040
:100AD0000C68C4F8A000D1E9104004FB00220868AB
:100AE000D0F8B0004FF6FC74A04340EA82000C68D6
:100AF000C4F8B0000868D0F8B00020F4FE04B1F8E3
:100B0000480044EA00400C68C4F8B000D1E9124043
:100B100004FB00220868D0F8AC004FF6FC74A04338
:100B200040EA82000C68C4F8AC00D1E9144004FB30
:100B300000220868D0F8F0004FF6FC74A04340EAA9
:100B400082000C68C4F8F0000868D0F8F00020F4C7
:100B50007C14B1F8580044EA00400C68C4F8F00076
:100B6000886D02EB40020868D0F8C0004FF6FC74B4
:100B7000A04340EA82000C68C4F8C0000868D0F8BE
:100B8000C00020F47C14B1F85C0044EA00400C681A
:100B9000C4F8C0000868D0F8C00020F07C5491F878
:100BA000600044EA00600C68C4F8C0002A4C486B3E
:100BB00004EB8000C866CC6E886B04EB80040C6785
:100BC0000C6FC86B04EBC0044C67D1E910046043A0
:100BD0004C6F04EB80048C67D1E9120460438C6F86
:100BE00004EB8004CC67D1E914046043CC6F04EBC0
:100BF0008004802044504458886D04EBC004842055
:100C000044508C6EC86D60438424645804EB8004A7
:100C1000882044508C6E086E60438824645804EB2E
:100C200080049020445040580C4CA04209D998317F
:100C3000486840F020004860032001F8980901202E
:100C400010BDCB6E02E0002018601B1D90204058A4
:100C50009842F8D80020F3E700AC0040FCD30040F5
:100C60002DE9F041054614461E46D1F804C0BCF1FA
:100C7000000F0AD1D1F810C0D1F808804CEA080C56
:100C8000B1F800804CEA88430BE0D1F810C04CF07A
:100C9000804CD1F808804CEA080CD1F800804CEA6E
:100CA000080391F82080D1F81CC04CEA086CD1F8F8
:100CB00018804CEA080CD1F814804CEA080CB1F802
:100CC0000C804CEA0847D5F868C00CFB06FCD5F848
:100CD000848008EB8C021360121D1760121D002027
:100CE00019E000F1030C14F80CC04FEA0C6800F195
:100CF000020C14F80CC048EA0C4800F1010C14F87E
:100D00000CC048EA0C2C14F800804CEA080CC2F81D
:100D100000C0121D001DDFF81480D1F80CC018F8B7
:100D20000CC08445DDD8BDE8F0810000F4D2000895
:100D300070B50A480468001D0568001D0668344443
:100D400054B108220649204606F0AEFA04220449AE
:100D50001031284606F0A8FA70BD000000E8F11F27
:100D6000D200002470B504460CB9012070BD94F87F
:100D70003500022803D0802060650120F6E7DC49B9
:100D80002068884249D0DA4918312068884244D026
:100D9000D7493031206888423FD0D5494831206852
:100DA00088423AD0D24960312068884235D0D04953
:100DB00078312068884230D0CD499031206888420F
:100DC0002BD0CB49A8312068884226D0C949206859
:100DD000884222D0C7491831206888421DD0C549B1
:100DE00030312068884218D0C24948312068884292
:100DF00013D0C0496031206888420ED0BD49783197
:100E00002068884209D0BB4990312068884204D0CC
:100E1000B849A8312068884201D1012000E00020B3
:100E2000F0B3042084F83500B149206888424BD0E3
:100E3000AF4918312068884246D0AD49303120682A
:100E4000884241D0AA494831206888423CD0A8490C
:100E500060312068884237D0A549783120688842BF
:100E600032D0A3499031206888422DD0A049A831C2
:100E70002068884228D09F492068884224D09D4914
:100E80001831206888421FD09A4930312068884242
:100E90001AD0984948312068884215D0954900E019
:100EA00020E06031206888420ED092497831206875
:100EB000884209D08F4990312068884204D08D49FA
:100EC000A8312068884206D12068006820F001001F
:100ED0002168086009E12068006820F001002168AD
:100EE000086002E12068006820F00E0021680860B8
:100EF0007F492068884249D07D491831206888425E
:100F000044D07B493031206888423FD0784948310D
:100F1000206888423AD0764960312068884235D0CE
:100F2000734978312068884230D071499031206807
:100F300088422BD06E49A8312068884226D06D495E
:100F40002068884222D06B491831206888421DD021
:100F5000684930312068884218D066494831206895
:100F6000884213D063496031206888420ED06149BD
:100F700078312068884209D05E49903120688842E3
:100F800004D05C49A8312068884206D120680068F6
:100F900020F001002168086005E02068006820F06A
:100FA00001002168086052492068884270D0504989
:100FB0001831206888426BD04D4930312068884212
:100FC00066D04B4948312068884261D04849603139
:100FD000206888425CD0464978312068884257D0E2
:100FE000434990312068884252D04149A831206855
:100FF00088424DD03F492068884249D03D49183148
:101000002068884244D03B493031206888423FD034
:1010100038494831206888423AD0364960312068E2
:10102000884235D0334978312068884230D0314900
:101030009031206888422BD02E49A8312068884200
:1010400026D02D492068884222D02B4914312068AF
:1010500088421DD0284928312068884218D0264966
:101060003C312068884213D023495031206888429F
:101070000ED0214964312068884209D01E49783158
:101080002068884204D01C498C312068884201D1F4
:10109000012000E00020D8B1206E006820F48070AC
:1010A000216E0860A56D94F85C0000F01F0101201E
:1010B00088406860D4E919104860E06E40B1E06E85
:1010C000006820F48070E16E0860D4E91C1048606C
:1010D000012084F8350000BF002084F8340000BFF0
:1010E000206D10B12046216D884700203EE60000AB
:1010F0001000024010040240085402582DE9F84F35
:10110000044600200090FE4800684FF41651B0FBE2
:10111000F1FAA66DD4F858803768D8F80090F949EC
:101120002068884249D0F74918312068884244D065
:10113000F4493031206888423FD0F2494831206874
:1011400088423AD0EF4960312068884235D0ED4975
:1011500078312068884230D0EA499031206888424E
:101160002BD0E849A8312068884226D0E64920687B
:10117000884222D0E4491831206888421DD0E249D3
:1011800030312068884218D0DF49483120688842D1
:1011900013D0DD496031206888420ED0DA497831B9
:1011A0002068884209D0D84990312068884204D00C
:1011B000D549A8312068884201D1012000E00020F3
:1011C00000287DD094F85C0000F01F0108208840C2
:1011D0003840002868D0CB492068884249D0C949A6
:1011E00018312068884244D0C6493031206888428E
:1011F0003FD0C4494831206888423AD0C149603163
:101200002068884235D0BF4978312068884230D084
:10121000BC499031206888422BD0BA49A831206857
:10122000884226D0B8492068884222D0B649183171
:10123000206888421DD0B44930312068884218D0D7
:10124000B14948312068884213D0AF4960312068E5
:1012500088420ED0AC4978312068884209D0AA492A
:1012600090312068884204D0A749A831206888427C
:1012700004D12068006800F0040003E020680068E2
:1012800000F0080080B12068006820F004002168A8
:10129000086094F85C0000F01F0108208840B060EE
:1012A000606D40F00100606594F85C0000F01F0183
:1012B000012088403840E8B392492068884200E025
:1012C000B7E24BD08F4918312068884246D08D490B
:1012D00030312068884241D08A49483120688842AC
:1012E0003CD0884960312068884237D085497831C0
:1012F0002068884232D083499031206888422DD0BE
:101300008049A8312068884228D07F4920688842D7
:1013100024D07D491831206888421FD07A49303165
:10132000206888421AD0784948312068884215D010
:10133000754900E026E06031206888420ED072498D
:1013400078312068884209D06F49903120688842FE
:1013500004D06D49A8312068884204D120684069D2
:1013600000F0800002E020680068002050B194F88E
:101370005C0000F01F0101208840B060606D40F00B
:101380000200606594F85C0000F01F0104208840B2
:101390003840E8B35B49206888424BD0594918313E
:1013A0002068884246D0574930312068884241D071
:1013B00054494831206888423CD052496031206805
:1013C000884237D04F4978312068884232D04D4921
:1013D0009031206888422DD04A49A831206888423F
:1013E00028D049492068884224D0474918312068CC
:1013F00088421FD044493031206888421AD042497F
:1014000048312068884215D03F496031206800E0AB
:1014100024E088420ED03C4978312068884209D0C7
:10142000394990312068884204D03749A831206872
:10143000884204D12068006800F0020002E02068C1
:101440000068002050B194F85C0000F01F010420F7
:101450008840B060606D40F00400606594F85C0006
:1014600000F01F01102088403840E8B3254920686B
:10147000884251D023491831206888424CD02149F4
:1014800030312068884247D01E4948312068884260
:1014900042D01C496031206888423DD019497831DA
:1014A0002068884238D0174990312068884233D06C
:1014B0001449A831206888422ED0134920688842F8
:1014C0002AD0114918312068884225D00E49303180
:1014D0002068884220D00C494831206888421BD0BF
:1014E00009496031206800E04DE0884214D0064987
:1014F0007831206888420FD003499031206805E098
:101500001C0000241000024010040240884203D056
:10151000FE492068884204D12068006800F0080075
:1015200003E02068006800F0040060B394F85C00F9
:1015300000F01F0110208840B0602068006800F4AF
:10154000802080B12068006800F4002028B9206C59
:10155000C8B12046216C884715E0A06C98B12046A0
:10156000A16C88470FE02068006800F4807028B9FB
:101570002068006820F0080021680860206C10B125
:101580002046216C884794F85C0000F01F01202061
:101590008840384000287DD0DD492068884249D005
:1015A000DB4918312068884244D0D949303120685D
:1015B00088423FD0D6494831206888423AD0D44941
:1015C00060312068884235D0D1497831206888421E
:1015D00030D0CF499031206888422BD0CC49A831F7
:1015E0002068884226D0C949A8392068884221D07D
:1015F000C6499039206888421CD0C449783920688F
:10160000884217D0C14960392068884212D0BF494A
:101610004839206888420DD0BC493039206888425A
:1016200008D0BA4918392068884203D0B7492068E1
:10163000884204D12068006800F0100003E02068B0
:10164000006800F0020028B394F85C0000F01F016D
:1016500020208840B06094F8350004282DD12068FF
:10166000006820F01600216808602068406920F0BA
:10167000800021684861206C08B9A06C28B12068FE
:10168000006820F008002168086094F85C0000F011
:101690001F0100E03FE03F208840B060012084F857
:1016A000350000BF002084F8340000BF206D10B169
:1016B0002046216D8847BDE8F88F2068006800F457
:1016C000802080B12068006800F4002028B9606C98
:1016D00008B32046616C88471DE0E06BD8B1204616
:1016E000E16B884717E02068006800F4807068B9F3
:1016F0002068006820F0100021680860012084F84C
:10170000350000BF002084F8340000BFE06B10B14A
:101710002046E16B8847606D00287AD0606D00F04C
:101720000100E8B3042084F8350079492068884234
:101730004BD0774918312068884246D074493031FF
:101740002068884241D072494831206888423CD0A4
:101750006F4960312068884237D06D497831206800
:10176000884232D06A499031206888422DD0684939
:10177000A8312068884228D06449A8392068884266
:1017800023D062499039206888421ED05F49783959
:101790002068884219D05D4960392068884200E09D
:1017A00040E012D059494839206888420DD0574945
:1017B00030392068884208D0544918392068884256
:1017C00003D052492068884206D12068006820F082
:1017D00001002168086005E02068006820F0010031
:1017E0002168086000BF0098401C0090504500D957
:1017F00005E02068006800F001000028F3D100BF78
:101800002068006800F0010020B1032084F8350052
:1018100003E00DE0012084F8350000BF002084F8CB
:10182000340000BFE06C002802D02046E16C8847FD
:10183000D9E138492068884222D0364914312068DD
:1018400088421DD0334928312068884218D0314958
:101850003C312068884213D02E495031206888429C
:101860000ED02C4964312068884209D0294978314A
:101870002068884204D027498C312068884201D1F1
:10188000012000E000200028D2D02068056894F8EC
:101890005C0000F01F010420884000EA0900D8B372
:1018A00005F00400C0B394F85C0000F01F010420B0
:1018B0008840C8F8040005F4004080B105F4803089
:1018C00030B9A06C0028B3D02046A16C88478AE1CB
:1018D000206C0028ACD02046216C884783E105F0BD
:1018E0002000E8BB0A492068884253D008491831D3
:1018F000206888424ED0064930312068884249D05D
:10190000034948312068884244D006E0B8040240C8
:1019100010000240085402584FE0B449603120687A
:10192000884237D0B14978312068884232D0AF49F7
:101930009031206888422DD0AC49A8312068884277
:1019400028D0AB492068884224D0A94918312068A2
:1019500088421FD0A6493031206888421AD000E062
:1019600025E0A34948312068884213D0A04960315E
:10197000206888420ED09E4978312068884209D07C
:101980009B4990312068884204D09949A831206849
:10199000884206D12068006820F0080021680860AD
:1019A00005E02068006820F0040021680860206CD1
:1019B00010B32046216C884715E194F85C0000F0D4
:1019C0001F010220884000EA0900E8B305F0020088
:1019D000D0B394F85C0000F01F0102208840C8F8E2
:1019E000040005F4004070B105F4803028B9606C43
:1019F00010B12046616C8847F5E0E06BF0B32046FB
:101A0000E16B8847EFE005F02000C0BB7749206814
:101A100088424ED0754918312068884249D07349B0
:101A200030312068884244D070494831206888426B
:101A30003FD06E496031206888423AD06B49783196
:101A40002068884235D000E04EE068499031206837
:101A500088422ED06549A8312068884229D064493F
:101A60002068884225D0624918312068884220D0F9
:101A70005F493031206888421BD001E06EE02DE0E4
:101A80005B4948312068884213D059496031206849
:101A900088420ED0564978312068884209D054498E
:101AA00090312068884204D05149A831206888428A
:101AB00006D12068006820F014002168086005E065
:101AC0002068006820F00A0021680860012084F87E
:101AD000350000BF002084F8340000BFE06BE8B39D
:101AE0002046E16B88477EE094F85C0000F01F011F
:101AF0000820884000EA090080B305F0080068B3B8
:101B00003A49206888424BD03849183120688842C9
:101B100046D0364930312068884241D03349483177
:101B2000206888423CD0314960312068884237D0F3
:101B30002E4978312068884232D02C499031206873
:101B400088422DD02949A8312068884228D02849C8
:101B50002068884224D02649183100E043E02068FC
:101B600088421DD0224930312068884218D020494F
:101B700048312068884213D01D496031206888426E
:101B80000ED01B4978312068884209D0184990311D
:101B90002068884204D01649A8312068884206D1BE
:101BA0002068006820F01C002168086005E02068BB
:101BB000006820F00E002168086094F85C0000F0D6
:101BC0001F0101208840C8F804000120606584F8E6
:101BD000350000BF002084F8340000BFE06C10B175
:101BE0002046E16C884700BF65E500001000024018
:101BF000100402402DE9F041044601F0FFF980464F
:101C000014B90120BDE8F081FE492068884249D01E
:101C1000FC4918312068884244D0FA4930312068A4
:101C200088423FD0F7494831206888423AD0F54988
:101C300060312068884235D0F24978312068884286
:101C400030D0F0499031206888422BD0ED49A8313E
:101C50002068884226D0EC492068884222D0EA4990
:101C60001831206888421DD0E74930312068884209
:101C700018D0E54948312068884213D0E2496031E4
:101C8000206888420ED0E04978312068884209D027
:101C9000DD4990312068884204D0DB49A8312068B2
:101CA000884201D1012000E00020002873D0606A42
:101CB00000B100BF022084F8350000BF002084F886
:101CC000340000BFCF492068884249D0CD4918313F
:101CD0002068884244D0CB493031206888423FD0C8
:101CE000C8494831206888423AD0C64960312068E6
:101CF000884235D0C34978312068884230D0C14904
:101D00009031206888422BD0BE49A8312068884293
:101D100026D0BD492068884222D0BB4918312068AE
:101D200088421DD0B84930312068884218D0B64961
:101D300048312068884213D0B34960312068884216
:101D40000ED0B14978312068884209D0AE4990312F
:101D50002068884204D0AC49A8312068884206D166
:101D60002068006820F001002168086005E0206814
:101D7000006820F00100216808600DE001F03EF9E4
:101D8000A0EB0800052807D920206065032084F80F
:101D90003500012036E769E02068006800F00100A6
:101DA0000028EBD12068056898480540D4E9020175
:101DB00008432169084361690843A1690843E1694F
:101DC0000843216A08430543606A042803D1D4E923
:101DD0000B01084305436068292802D360682E2858
:101DE00017D960683F2802D36068422811D960681B
:101DF000472802D3606848280BD960684F2802D36F
:101E00006068522805D96068742804D36068772810
:101E100001D8012000E0002008B145F480152068B9
:101E200005602068456925F00705606A0543606A1A
:101E300004280DD1A06A0543E06A48B12046FEF7A8
:101E400033FD28B140206065012084F83500D9E6D3
:101E5000206845612046FEF703FC064694F85C00C6
:101E600000F01F013F208840B0609EE06849206874
:101E7000884222D066491431206888421DD06449C6
:101E800028312068884218D061493C312068884256
:101E900013D05F495031206888420ED05C496431CC
:101EA0002068884209D05A4978312068884204D095
:101EB00057498C312068884201D1012000E0002080
:101EC000E0B353492068884222D051491431206838
:101ED00088421DD04E4928312068884218D04C498C
:101EE0003C312068884213D04949503120688842EB
:101EF0000ED0474964312068884209D0444978317E
:101F00002068884204D042498C312068884201D13F
:101F1000012000E0002000B100BF022084F835005D
:101F200000BF002084F8340000BF206805683948ED
:101F30000540A068402802D1102106E02EE0A068EC
:101F4000802801D1C10100E00021E06841EAD00110
:101F5000206941EAD001606941EAD001A06941EA03
:101F6000D001E06941EAD001206A41EA101005433E
:101F70002068056026492068401A1421B0FBF1F062
:101F80008000E0652046FEF76BFB074694F85C0096
:101F900000F01F0101208840786006E04020606565
:101FA000032084F8350001202CE616492068884279
:101FB0007AD0144918312068884275D011493031DF
:101FC0002068884270D00F494831206888426BD021
:101FD0000C4960312068884266D00A49783120680F
:101FE000884261D007499031206888425CD0054919
:101FF000A8312068884257D003492068884253D0CE
:10200000014909E010000240100402403F8010FE28
:10201000085402580F00FEFF18312068884243D050
:102020003749206888423FD03549183120688842B6
:102030003AD0334930312068884235D03049483170
:102040002068884230D02E496031206888422BD0E9
:102050002B4978312068884226D02A492068884256
:1020600022D028491431206888421DD025492831C2
:102070002068884218D023493C312068884213D018
:1020800020495031206888420ED01E4964312068B2
:10209000884209D01B4978312068884204D0194908
:1020A0008C312068884201D1012000E0002000B37B
:1020B0002046FEF74BFBA068802801D1002060601D
:1020C0002079216E0860D4E919104860606860B119
:1020D0006068082809D82046FEF79AFB0020E16EC8
:1020E0000860D4E91C10486003E00020E066206727
:1020F000606700206065012084F83500002081E5DC
:10210000400402400854025870B5044600F076FFBF
:1021100006462546681C10B104480078054400BFF7
:1021200000F06CFF801BA842FAD370BD1800002499
:1021300030B5034693F89840012C01D0022C3ED1D3
:102140001868806D084030B91868C06D40F0010013
:102150001D68E8650EE01868806D0840884206D169
:102160001868C06D40F002001D68E86502E00320B9
:102170001D68E86501F4007030B11868D0F8E0001F
:1021800010431D68C5F8E00001F4806030B11868A4
:10219000D0F8E40010431D68C5F8E40000BF1868DB
:1021A000406D0B4D0D4028431D6868650948006867
:1021B00040EA9170074D286000BF002030BDD3F881
:1021C0009C0040F00200C3F89C000120F6E70000EC
:1021D000FFFFCF3F14A800402DE9F04104460E4612
:1021E0001746706800B900E000BF94F89800022814
:1021F00032D12068D0F8C00000F07C5040B9D4F84B
:102200009C0040F02000C4F89C000120BDE8F08153
:102210002068D0F8C40000F4001038B1D4F89C0055
:1022200040F40070C4F89C000120EFE72068D0F86B
:10223000C400C0F304452B463A4631462046FEF71B
:102240000FFD0120A8402168C1F8D0000120A8405E
:10225000C4F894000020D9E7D4F89C0040F00800AE
:10226000C4F89C000120D1E77047F0B5024692F80F
:102270009860012E01D0022E43D1C868072800D1F2
:1022800000BF086818BBC868072800D000BFC8682E
:1022900007280BD1088A4FF0605747EA0040CF6902
:1022A00040EA07208F6940EA07040AE0087A8007BD
:1022B0000F7B40EAC7600F8A40EA07404F6940EA57
:1022C0000704D76E486807EB80031C6017E0C868F6
:1022D000072800D000BF0F7B086940EA4774C86830
:1022E000072801D18D6903E00F7A486940EA8775B4
:1022F000176F486807EBC0031C601B1D1D600020A2
:10230000F0BDD2F89C0040F00200C2F89C00012011
:10231000F6E770B50446049D94F8980001280AD1A8
:10232000080140EA820040EA430028432668C6F8D4
:102330008000002070BDD4F89C0040F00400C4F878
:102340009C000120F6E77047704700002DE9F0433C
:1023500004460D469C46002394F89880B8F1020F7D
:1023600074D1402D38D12068D0F8A00000F4FE00D0
:1023700040B9D4F89C0040F02000C4F89C00012033
:10238000BDE8F0832068D0F8A40000F07F0038B9E1
:10239000D4F89C0040F48070C4F89C000120EFE762
:1023A0002068D0F8A400C0F3006040B12068D0F8E5
:1023B000A0004FF00109B9EBD07F00D101232068C4
:1023C000D0F8A400C0F305200344606C5843D4F84F
:1023D000749009EB80014BE0412D38D12068D0F892
:1023E000B00000F4FE0038B9D4F89C0040F02000A2
:1023F000C4F89C000120C3E72068D0F8B40000F0C6
:102400007F0038B9D4F89C0040F48070C4F89C0078
:102410000120B5E72068D0F8B400C0F3006040B1F7
:102420002068D0F8B0004FF00109B9EBD07F00D19F
:1024300001232068D0F8B400C0F305200344E06C09
:102440005843D4F8789009EB800111E06DE0206DDD
:10245000A84207D8D4F89C0040F02000C4F89C00A3
:1024600001208DE7606D6843D4F87C9009EB800112
:10247000086800F080405060506820B90868C0F3D8
:102480008A40106003E0086820F06040106008682F
:1024900000F000509060086800F000401061091DD5
:1024A000088880B2D0610868C0F30340D060086833
:1024B00000F480105061086800F400109061086812
:1024C000C0F3066010620868C00F5062091D0F4615
:1024D000002603E0B85D0CF80600761CDFF85C907F
:1024E000D06819F80000B042F4D8402D03D120681C
:1024F000C0F8A83017E0412D03D12068C0F8B830EB
:1025000011E0202D06D20120A840D4F80090C9F88F
:10251000980008E005F01F09012000FA09F0D4F83E
:102520000090C9F89C0000202AE7D4F89C0040F0F5
:102530000800C4F89C00012022E70000F4D2000843
:10254000704700002DE9F04F8DB00446EF48006859
:102550008707EE48001D006807EA80772068006D55
:1025600000F470482068406D00EA08082068006D9B
:1025700000F00F092068406D00EA09092068006D2D
:1025800000F0F00A2068406D00EA0A0A2068006D39
:1025900000F0715B2068406D00EA0B0B2068006D55
:1025A00000F060700C902068406D0C9908400C9011
:1025B0002068456D2068066DC5F3002070B1C6F334
:1025C000002058B100BF4FF48070216808650020DA
:1025D000CE49086000BF2046FFF7B2FFC5F3802058
:1025E000C8B1C6F38020B0B12068D0F8DC000A90F2
:1025F0002068D0F8E4000A9908400A9000BF4FF420
:102600008060216808650020C049086000BF20463E
:102610000A9900F0F1FB67B100BFBD48384021685E
:102620000865B80FB949086000BF39462046FFF772
:102630001BFEB8F1000F0ED000BFB54808EA00003D
:10264000216808654FEA9870B049086000BF4146AC
:10265000204600F0D3FBB9F1000F0ED000BFAC480C
:1026600009EA0000216808654FEA9970A7490860E7
:1026700000BF4946204600F057FBBAF1000F0ED0CC
:1026800000BFA3480AEA0000216808654FEA9A7073
:102690009E49086000BF5146204600F06FFBC5F31D
:1026A000C02070B1C6F3C02058B100BF4FF4006025
:1026B0002168086500209549086000BF204600F0A9
:1026C0009EFBC5F34020C8B1C6F34020B0B12068DE
:1026D000D0F8D8000B902068D0F8E0000B990840A3
:1026E0000B9000BF4FF400702168086500208749F7
:1026F000086000BF20460B9900F07FFBC5F3C04087
:1027000070B1C6F3C04058B100BF4FF4002021683B
:10271000086500207D49086000BF204600F002FBEC
:10272000C5F3004070B1C6F3004058B100BF4FF48C
:1027300080302168086500207449086000BF204689
:1027400000F059FBC5F3804070B1C6F3804058B12A
:1027500000BF4FF480202168086500206B490860A5
:1027600000BF204600F046FBC5F3404088B1C6F3E9
:10277000404070B100BF4FF4003021680865002070
:102780006249086000BFD4F89C0040F08000C4F8A3
:102790009C000C9870B100BF5D490C9808402168FE
:1027A00008650C98800F5949086000BF20460C99B5
:1027B000FFF7CAFDBBF1000F10D000BF54480BEA71
:1027C0000000216808654FEA9B705049086000BF0F
:1027D000D4F89C0040EA0B00C4F89C004D492068E6
:1027E00088427DD16068806800F00300002877D0BF
:1027F0006068006A00F00F0009906068406A0999FB
:10280000084009906068006A00F030000890606835
:10281000406A0899084008906068006A00F4C07037
:1028200007906068406A0799084007906068006AEE
:1028300000F4FC4006906068406A069908400690E3
:102840006068006A00F4F02005906068406A0599AD
:10285000084005906068406A02906068006A0190D4
:10286000099830B10998616808622046099900F01A
:10287000BEFA089830B10898616808622046089945
:1028800000F0B7FA0298C0F38010A0B10198C0F32D
:10289000801080B16068C06B000C04906068C06BF1
:1028A00000F03F0003904020616808622046DDE9A7
:1028B000032100F09DFA079830B10798616808621B
:1028C0002046079900F092FA069840B10698616890
:1028D0000862D4F89C0006990843C4F89C0000E004
:1028E0000AE0059840B1059861680862D4F89C0038
:1028F00005990843C4F89C00D4F89C0010B1204608
:10290000FFF721FD0DB0BDE8F08F000010A80040DA
:10291000FFFFCF3F00A0004070B594B004464C22AA
:10292000B34901A8FDF77FFD14B9012014B070BDB3
:10293000B0492068884203D1206800F5807060604B
:10294000A068B0F5407F00D100BF206C00B100BF8F
:10295000A06C00B100BF206D00B100BF206E00B1BF
:1029600000BFD4E91710084400B100BF94F89800E4
:1029700028B9002084F89900204600F03DF920682D
:10298000806920F010002168886100F037FB05465F
:102990000EE000F033FB401B0A2809D99834606828
:1029A00040F001006060032004F898090120BDE7B1
:1029B0002068806900F008000828EAD02068806953
:1029C00040F001002168886100F018FB05460EE028
:1029D00000F014FB401B0A2809D99834606840F0C5
:1029E00001006060032004F8980901209EE7206838
:1029F000806900F001000028EAD02068806940F07A
:102A0000020021688861207C012806D12068806945
:102A100020F040002168886105E02068806940F06E
:102A2000400021688861607C012806D120688069A7
:102A300040F480402168886105E02068806920F4C6
:102A4000804021688861A07C012806D120688069C7
:102A500020F480502168886105E02068806940F496
:102A60008050216888612068806920F44070A168E6
:102A70000843216888612068806920F0A4002168EB
:102A800088612068006920F0100021680861E06812
:102A9000012806D12068806940F00400216888611F
:102AA00020E0E068F0B1E068022815D02068806975
:102AB00040F08000216888612068006940F01000C3
:102AC00021680861E06803280CD12068806940F023
:102AD00020002168886105E02068806940F02000BE
:102AE00021688861207E401E4106E069401E41EA5F
:102AF0000020216A491E0843A18A491E40EA01407C
:102B00002168C861A068B0F5407F0FD1A06A401E5F
:102B1000E16A491E40EA0121206B401E41EA001192
:102B2000A08C401E41EA00402168C860206E38B188
:102B30002068D0F8C000616E08432168C1F8C00069
:102B4000D4E91710084460B12068D0F8C80020F01C
:102B5000070001AAA16E52F8211008432168C1F8AC
:102B6000C800206C60B12068D0F8BC0020F00700DD
:102B700001AA616C52F8211008432168C1F8BC0019
:102B8000A06C68B12068D0F8BC0020F0700101AAE8
:102B9000E06C52F8200041EA00102168C1F8BC0046
:102BA000206D68B12068D0F8BC0020F4E06101AA73
:102BB000606D52F8200041EA00202168C1F8BC0095
:102BC0000C492068884205D16068806820F00300C5
:102BD00061688860002044F8940FA0600120207193
:102BE000943C2046FDF72CFF064630469EE600004A
:102BF00004D3000800A0004010B586B0044614219C
:102C000001A8FDF729FC4149206888423CD1404891
:102C10000068401C3E4908600846006801280DD144
:102C200000BF3C48006840F480703A49086008469C
:102C3000006800F48070009000BF00BF00BF3548FE
:102C40000C38006840F0080032490C39086008462A
:102C5000006800F00800009000BF00BF0320019052
:102C6000022002900020039004900920059001A901
:102C7000294800F0C5F800220521132000F07CFA55
:102C8000132000F065FA3FE02449206888423BD1D8
:102C90001F480068401C1E4908600846006801285B
:102CA0000DD100BF1B48006840F4807019490860CE
:102CB0000846006800F48070009000BF00BF00BFAD
:102CC00014480C38006840F0020012490C390860C2
:102CD0000846006800F00200009000BF00BF6020BE
:102CE000019002200290002003900490092005909A
:102CF00001A90B4800F084F800220621142000F0FE
:102D00003BFA142000F024FA06B010BD00A00040E9
:102D10000C000024EC440258000C025800A40040AF
:102D2000000402587047000070B504460D4605F0D7
:102D30000100D0B10D492068884216D140210C48CD
:102D4000FDF78AFB0A4B0B4A40212046FFF7FEFAAB
:102D500008480068042806D106480549C2680648A4
:102D600009F08AF900E000BF00BF70BD00A000407C
:102D70003C9F0024149F0024E09D002470B504466D
:102D80000D4605F0100080B10849206888420CD13A
:102D900040210748FDF760FB054B064A41212046CC
:102DA000FFF7D4FA00BF00BF00BF70BD00A4004011
:102DB000A49F00247C9F0024014691F898000128DC
:102DC0000CD1022081F898000868806920F0010089
:102DD0000A6890610020C1F89C007047D1F89C00FF
:102DE00040F00400C1F89C000120F6E770477047EE
:102DF000704770477047704770477047704770471B
:102E0000F8B502460B4600216D4DD2E001278F40F8
:102E10001E6806EA0704002C72D01E7906F003062D
:102E2000012E04D01E7906F00306022E13D19068FD
:102E30004F000326BE40B0434F00DE68BE40304323
:102E40009060506801268E40B0431E79C6F300168C
:102E50008E40304350601E7906F00306032E09D0E1
:102E6000D0684F000326BE40B0434F009E68BE406E
:102E70003043D0601E7906F00306022E13D1CF082E
:102E800002F1200656F827004E07F70E0F26BE4027
:102E9000B0434F07FF0E1E69BE403043CF0802F11A
:102EA000200646F8270010684F000326BE40B043B6
:102EB0001E7906F003064F00BE40304310605E6886
:102EC00006F44036002E73D000BF3E4E366846F002
:102ED00002063C4F3E603E46366806F0020600960B
:102EE00000BF00BF384E8F0856F827008E07370FF7
:102EF0000F26BE40B043354EB24202D1002629E033
:102F000056E0334EB24201D1012623E0314EB242A7
:102F100001D102261EE0304EB24201D1032619E053
:102F20002E4EB24201D1042614E02D4EB24201D100
:102F300005260FE02B4EB24201D106260AE02A4EAA
:102F4000B24201D1072605E0284EB24201D109263E
:102F500000E00A268F073F0FBE4030431A4E8F080D
:102F600046F827004FF0B0463068A0435E6806F48C
:102F7000801606B120434FF0B04630607068A04321
:102F80005E6806F4001606B120434FF0B04670604C
:102F90006868A0435E6806F4003606B120436860A6
:102FA0002868A0435E6806F4803606B12043286096
:102FB000491C1E68CE40002E7FF428AFF8BD0000EB
:102FC00080000058F44402580804005800000258D9
:102FD0000004025800080258000C02580010025861
:102FE0000014025800180258001C0258002402580D
:102FF0000AB1816101E00B048361704701480068F8
:103000007047000010000024034800680349097855
:10301000084401490860704710000024180000248B
:1030200010B5032000F0E6F802F0D2FA1049096862
:10303000C1F303210F4A515C01F01F0120FA01F492
:103040000B48006800F00F001146085C00F01F00FC
:1030500024FA00F008490860084804600F2000F0D6
:103060000FF808B1012010BD00F05AF80020FAE76F
:103070001844025878D30008200000241C000024C3
:10308000F0B58BB00446102C0AD20022214637201E
:1030900000F072F8372000F05BF81C48046002E092
:1030A00001200BB0F0BD00BF1948006840F02000BF
:1030B000174908600846006800F02000019000BF32
:1030C00000BF02A903A802F003FA089E1EB902F08D
:1030D0005BFA054602E002F057FA45000D48B5FBE1
:1030E000F0F0471E0C480D49086040F2E7310B48EC
:1030F000C160476000210161816003F025FC18B9BF
:10310000064803F059FCCCE70120CAE7140000246C
:10311000E844025840420F000014004060080024B8
:1031200008B500BF0948006840F002000749086080
:103130000846006800F00200009000BF00BF0022B7
:103140000F21901E00F018F808BD0000F44402584A
:103150000146084600280DDB00BF00BF00F01F033A
:1031600001229A4043099B0003F1E023C3F80021A8
:1031700000BF00BF00BF70472DE9F05F80460D46DD
:10318000164608F0EBFB074639462A46334601F05F
:103190000700C0F1070ABAF1040F02D94FF0040A80
:1031A00001E0C0F1070AD14600F1040ABAF1070FA5
:1031B00002D24FF0000A01E0A0F1030AD4464FF01A
:1031C000010A0AFA09FAAAF1010A0AEA020A0AFA43
:1031D0000CFA4FF0010B0BFA0CFBABF1010B0BEAF5
:1031E000030B4AEA0B042146404608F0BFFBBDE84A
:1031F000F09F000000BF00F00702064B19684FF671
:10320000FF031940044B0B4343EA0221014B1960B1
:1032100000BF70470CED00E00000FA0501460A68A7
:103220000120C1F8D804002081F8CC04906940F056
:1032300000609061506D024B18435065002070474C
:10324000030000107047024610684162002070477A
:10325000F0B5034615461868446A21B944EA0540AA
:103260001E68B06219E01868806A04EB10440022FE
:1032700008E0186800F5827050F8220004EB104452
:10328000501CC2B2481E9042F3D844EA0547186861
:1032900000F582704E1E40F826700020F0BD10B57B
:1032A0000446D4F8E00406F057FE10BD70B504469D
:1032B0000D4605EBC50304F1140101EB8301CA6857
:1032C0002946D4F8E00406F042FD70BD70B504460E
:1032D0000D4605EBC50304F5157101EB8301CA68C2
:1032E0002946D4F8E00406F0B6FD70BD10B50446DA
:1032F000D4F8E00406F033FE10BD2DE9F041044699
:103300000D4605F08000802808D105F00F0000EB85
:10331000C00104F1140000EB810607E005F00F0086
:1033200000EBC00104F5157000EB81063146206802
:1033300008F064F807463846BDE8F08170B50446E9
:103340000E4606F0800080280AD106F00F0000EB40
:10335000C00104F1140000EB81050120687009E050
:1033600006F00F0000EBC00104F5157000EB8105BD
:103370000020687006F00F00287000BF94F89404D5
:10338000012801D1022070BD012084F8940400BFFF
:103390002946206807F0CAFB00BF002084F8940487
:1033A00000BF00BFEFE770B504460E4606F00F0001
:1033B0002179884201D9012070BD06F08000802863
:1033C0000AD106F00F0000EBC00104F1140000EB7D
:1033D00081050120687009E006F00F0000EBC001D4
:1033E00004F5157000EB8105002068700020A870BE
:1033F00006F00F00287000BF94F89404012801D152
:103400000220D9E7012084F8940400BF29462068EF
:1034100007F086FD00BF002084F8940400BF00BFC1
:10342000CAE7024601F00F0000EBC00302F5157079
:1034300000EB8300406970472DE9F04705460E46D2
:1034400090461F464FF0000906F0800080280AD100
:1034500006F00F0000EBC00105F1140000EB810441
:103460000120607009E006F00F0000EBC00105F5D7
:10347000157000EB81040020607006F00F002070D2
:10348000C4F808802771607808B120786083022F23
:1034900001D10020607100BF95F89404012802D189
:1034A0000220BDE8F087012085F8940400BF214682
:1034B000286807F045FA00BF002085F8940400BF93
:1034C0004846EEE72DE9F04105460E461746984678
:1034D00006F00F0000EBC00105F5157000EB81044C
:1034E000E760C4F8108000206061607006F00F0093
:1034F0002070A879012800D1E761AA7921462868BF
:1035000007F0A2FD0020BDE8F08170B504460D462D
:1035100005F00F002179884201D9012070BD05F026
:10352000800080280AD105F00F0000EBC00104F1F3
:10353000140000EB81060120707007E005EBC50167
:1035400004F5157000EB8106002070700120B0704A
:1035500005F00F00307000BF94F89404012801D1E9
:103560000220DBE7012084F8940400BF3146206884
:1035700007F01DFD05F00F0028B9A17904F29C4267
:10358000206807F095FC00BF002084F8940400BF79
:1035900000BFC3E72DE9F04105460E4617469846A1
:1035A00006F00F0000EBC00105F1140000EB8104F0
:1035B000E760C4F81080002060610120607006F0B0
:1035C0000F002070A879012800D1E761AA7921466F
:1035D000286807F039FD0020BDE8F0812DE9FE4F95
:1035E0000446D4F800B05E46206807F0E9FF0028E2
:1035F00074D1206808F023F808B9BDE8FE8F40F6C2
:1036000008008059C0F30D20C4F8D404206808F0E5
:1036100016F800F00200022805D12068406900F089
:10362000020021684861206808F009F800F01000E5
:10363000102845D12068806920F010002168886139
:10364000DBF8209009F00F0000EBC00104F51570C5
:1036500000EB810AC9F3434002281AD147F6F07003
:1036600009EA000030B3C9F30A125846DAF80C1020
:1036700007F0EAFFC9F30A11DAF80C000844CAF8A7
:103680000C00C9F30A11DAF814000844CAF814004F
:1036900010E0C9F3434006280CD1082204F29C41F3
:1036A000584607F0D1FFC9F30A11DAF814000844AC
:1036B000CAF814002068806940F010002168886111
:1036C000206807F0BCFF00F40020B0F5002F7BD18C
:1036D0000025206807F083FF029072E003E3029860
:1036E00000F00100002868D0E9B2206807F09AFFD6
:1036F000804608F0010048B1012106F5306000EB7A
:10370000451081602946204604F02EF908F0080093
:10371000082809D1082106F5306000EB45108160CA
:103720002946204604F0EEF808F01000102805D1D4
:10373000102106F5306000EB4510816008F00200B2
:10374000022824D1DBF8140000F08000802807D183
:1037500040F60400805940F4806140F60400815135
:1037600005EBC50104F5157000EB810A9AF803001A
:10377000012806D100208AF80300E9B2204600F0B3
:10378000BDFA022106F5306000EB4510816008F0BB
:103790002000202805D1202106F5306000EB4510DF
:1037A000816008F40050B0F5005F06D14FF400517D
:1037B00006F5306000EB451081606D1C02984008F2
:1037C0000290029800288AD1206807F038FF00F4A0
:1037D0008020B0F5802F7DD1206807F0F6FE0290A2
:1037E00000259AE0029800F00100002873D0E9B2A9
:1037F000206807F0FEFE804608F00100F0B305F0F7
:103800000F0101208840019040F634008159019851
:1038100021EA000040F634018851012106F51060CC
:1038200000EB45108160A079012824D105EBC5018A
:1038300004F1140000EB810005EBC502C16804F13E
:10384000140000EB82008068014405EBC50204F11E
:10385000140000EB8200C1606DB905EBC50104F1F5
:10386000140000EB8100006928B904F29C42012198
:10387000206807F01DFBE9B2204600E001E0FFF7F9
:1038800015FD08F00800082805D1082106F510608C
:1038900000EB4510816008F01000102805D11021C0
:1038A00006F5106000EB4510816008F040004028EC
:1038B00005D1402106F5106000EB4510816008F04D
:1038C000020002281DD12946584607F03CFE05EBB0
:1038D000C50101E025E01CE004F1140000EB810AC1
:1038E0009AF80300012806D100208AF80300E9B203
:1038F000204600F0FAF9022106F5106000EB4510B1
:10390000816008F08000802803D12946204604F019
:10391000CDF86D1C029840080290029800287FF4B0
:1039200061AF206807F08BFE00F00040B0F1004F5F
:103930001CD140F60400805920F0010140F604003B
:10394000815194F8CC04012807D1002084F8CC04DC
:1039500000212046FFF776FC02E0204600F0D6FA70
:103960002068406900F0004021684861206807F045
:1039700066FE00F40060B0F5006F0ED140F608005E
:10398000805900F0010010B1204600F017FB2068BC
:10399000406900F4006021684861206807F04FFE2C
:1039A00000F00060B0F1006F19D12068406900F0AC
:1039B00000602168486194F8CC0468B9012084F85B
:1039C000CC042068406DC0F38300C4F8D00401210A
:1039D0002046FFF737FC02E0204600F0EFFA2068AF
:1039E00007F02DFE00F48050B0F5805F7ED140F6E8
:1039F0000400805920F0010140F60400815110219B
:103A0000206807F0A0FD002732E04FF67F3106F571
:103A1000106000EB4710816006F5106000EB471066
:103A2000006820F4001106F5106000EB47100160FB
:103A30004FF67F3106F5306000EB4710816006F5E8
:103A4000306000EB4710006820F4001106F530608C
:103A500000EB4710016006F5306000EB471000688E
:103A600040F0006106F5306000EB471001607F1CFC
:103A70002079B842C9D840F61C00805940F00111A5
:103A800040F61C008151E07B70B1D6F8840840F00C
:103A90000B01C6F8841840F64400805940F00B0131
:103AA00040F6440081510FE040F61400805942F284
:103AB0002B01084340F614018851081F805940F03B
:103AC0000B014FF401608151D6F8000820F4FE602C
:103AD000C6F80008A17904F29C42206807F0E8F9D2
:103AE0002068406900F48050216800E000E04861EF
:103AF000206807F0A4FD00F40050B0F5005F17D176
:103B0000206806F085FF206807F047FDE07101F0AE
:103B100015FD0090E2792068009907F017FE204615
:103B200000F0DCF92068406900F400502168486129
:103B3000206807F084FD00F00800082808D120461E
:103B400000F0EBF92068406900F008002168486146
:103B5000206807F074FD00F08000802818D1DBF8A1
:103B6000180020F08000CBF8180001250DE005EBCF
:103B7000C50104F5157000EB8100C078012803D160
:103B8000E9B22046FFF7B9FB6D1C2079A842EED8B8
:103B9000206807F054FD00F48010B0F5801F2DD18F
:103BA000012522E006F5106000EB4510D0F80090EA
:103BB00005EBC50104F1140000EB81000079012838
:103BC00012D109F00040B0F1004F0DD1012105EBF9
:103BD000C50204F1140000EB8200C170E8B240F0AD
:103BE00080012046FFF789FB6D1C2079A842D9D8B7
:103BF0002068406900F4801021684861206807F05F
:103C00001EFD00F40010B0F5001F44D1012538E07E
:103C100006F5306000EB4510D0F8009005EBC501CB
:103C200004F5157000EB81000079012828D109F016
:103C30000040B0F1004F23D109F4803094F8D4143F
:103C400001F0010188421BD1012105EBC50204F5F9
:103C5000157000EB8200C170DBF8180040F08000A6
:103C6000CBF81800DBF8140000F0800040B940F6F3
:103C70000400805940F4007140F60400815103E0D3
:103C80006D1C2079A842C3D800BF2068406900F4A9
:103C9000001021684861206807F0D1FC00F08040E6
:103CA000B0F1804F08D12046FFF7F9FA206840694B
:103CB00000F0804021684861206807F0C0FC00F0F7
:103CC000040004280FD12068D0F8049009F0040003
:103CD000042802D12046FFF709FB2068406840EA2B
:103CE00009002168486000BF87E470B504460D46AE
:103CF0002946D4F8E00406F0A3F970BD70B5044677
:103D00000D462946D4F8E00406F0BEF970BD38B57A
:103D100004460CB9012038BD94F8950428B9002058
:103D200084F89404204600F0A1F8032084F8950458
:103D3000206807F0B5F8207C8DF8000094E80F00AB
:103D400006F07AFE20B1022084F895040120E2E713
:103D50000021206807F0A8FC20B1022084F8950417
:103D60000120D8E7002531E0012105EBC50204F16F
:103D7000140000EB8200417005EBC50104F1140052
:103D800000F8215005EBC50100EB810045830021BF
:103D900005EBC50204F1140000EB8200017105EB94
:103DA000C50204F1140000EB8200816005EBC5023E
:103DB00004F1140000EB8200C16005EBC50204F1C0
:103DC000140000EB82000161681CC5B22079A84292
:103DD000CADC00252AE0002105EBC50204F51570B8
:103DE00000EB8200417005EBC50104F5157000F889
:103DF0002150002105EBC50200EB8200017105EBAB
:103E0000C50204F5157000EB8200816005EBC50268
:103E100004F5157000EB8200C16005EBC50204F5E6
:103E2000157000EB82000161681CC5B22079A842C0
:103E3000D1DC207C8DF8000094E80F0006F040FFF4
:103E400020B1022084F89504012064E7002060740A
:103E5000012084F89504207B012802D12046FFF739
:103E6000DDF9206806F01AFF002054E710B5B0B065
:103E70000446B82102A8FCF7EFFA164920688842E8
:103E800025D14FF480210020CDE902104FF44010DD
:103E9000239002A800F028FB08B1FCF75DFD00F0BC
:103EA000D7F800BF0C48006840F000700A4908606D
:103EB0000846006800F00070019000BF00BF0022BB
:103EC00005214D20FFF758F94D20FFF741F930B09B
:103ED00010BD000000000440D844025870B50446EC
:103EE0000125E07908B9002506E0E079022801D132
:103EF000012501E0FCF730FD2946D4F8E00406F086
:103F00006CF9D4F8E00406F013F970BD10B504465E
:103F1000D4F8E00406F042F910BD10B50446D4F818
:103F2000E00406F046F910BD70B504460D4600BF2A
:103F300094F89404012801D1022070BD012084F876
:103F4000940400BF65742946206807F0E1FB00BFB8
:103F5000002084F8940400BF00BFEEE710B50446CB
:103F600004F29C41D4F8E00406F04EF910BD70B59F
:103F70000446256800BF94F89404012801D102206A
:103F800070BD012084F8940400BFE86800F0400090
:103F900030B1607B012803D1A86B40F48030A86366
:103FA000206807F0A1FA206806F066FE00BF002036
:103FB00084F8940400BF00BFE2E7000010B5044697
:103FC000D4F8E00406F07DF92068D0F8000E40F047
:103FD00001002168C1F8000EE07A28B103480068AA
:103FE00040F006000149086010BD000010ED00E03F
:103FF00070B5044615480068C0F3800048B91348FE
:10400000006800F00700A04201D0012070BD002030
:10401000FCE70E48006820F0070020430B490860C9
:10402000FEF7ECFF054607E0FEF7E8FF401BB0F5A2
:104030007A7F01D90120E9E7044808380068C0F315
:1040400040300028F0D00020E0E700000C48025883
:104050000348006840F08070014908607047000024
:104060000C48025810B501F069FA05490968C1F316
:104070000211044A515C01F01F01C84010BD00004C
:104080002044025878D3000870B50146844D2D684D
:1040900005F00303824D2D68C5F30530804D2D1DBD
:1040A0002D68C5F300147E4D14352D68C5F3CC057D
:1040B00015FB04F501EE105AB8EE411AF0EE410A74
:1040C00000286FD023B1012B4ED0022B6BD16BE0B7
:1040D000734D283D2D68C5F340153DB3704D283D07
:1040E0002D68C5F3C1066F4D25FA06F201EE102AC0
:1040F000F8EE411A01EE100AB8EE411A81EE812A5B
:104100009FED691AC0EE811A654D10352D68C5F313
:10411000080501EE105AB8EE411A31EE811AF7EE99
:10412000001A31EE211A22EE010A1CE001EE100AFB
:10413000B8EE411ADFED5D1A81EE812A9FED5A1A21
:10414000C0EE811A564D10352D68C5F3080501EEF5
:10415000105AB8EE411A31EE811AF7EE001A31EE1C
:10416000211A22EE010A5BE001EE100AB8EE411AB4
:10417000DFED4F1A81EE812A9FED4B1AC0EE811AB6
:10418000474D10352D68C5F3080501EE105AB8EEFD
:10419000411A31EE811AF7EE001A31EE211A22EEA1
:1041A000010A3DE077E01DE001EE100AB8EE411A89
:1041B0009FED402AC2EE011A9FED3B1A80EE812A44
:1041C000374D10352D68C5F3080501EE105AB8EECD
:1041D000411A32EE011AB7EE002A31EE021A21EE30
:1041E000810A1DE001EE100AB8EE411ADFED301A27
:1041F00081EE812A9FED2C1AC0EE811A284D1035D0
:104200002D68C5F3080501EE105AB8EE411A31EEDB
:10421000811AF7EE001A31EE211A22EE010A00BFD0
:1042200000BF1F4D10352D68C5F3462501EE105A0D
:10423000B8EE411AF7EE001A31EE211AC0EE011A5B
:10424000BCEEE11A81ED001A154D10352D68C5F34D
:10425000064501EE105AB8EE411AF7EE001A31EE9B
:10426000211AC0EE011ABCEEE11A81ED011A0C4DC3
:1042700010352D68C5F3066501EE105AB8EE411AE7
:10428000F7EE001A31EE211AC0EE011ABCEEE11A67
:1042900081ED021A03E000250D604D608D6070BD58
:1042A000284402580090D003000000460024744CBB
:1042B0000024744A001BB74B70B50146844D2D682D
:1042C00005F00303824D2D68C5F30550804D2D1D6B
:1042D0002D68C5F300247E4D1C352D68C5F3CC0533
:1042E00015FB04F501EE105AB8EE411AF0EE410A42
:1042F00000286FD023B1012B4ED0022B6BD16BE085
:10430000734D283D2D68C5F340153DB3704D283DD4
:104310002D68C5F3C1066F4D25FA06F201EE102A8D
:10432000F8EE411A01EE100AB8EE411A81EE812A28
:104330009FED691AC0EE811A654D18352D68C5F3D9
:10434000080501EE105AB8EE411A31EE811AF7EE67
:10435000001A31EE211A22EE010A1CE001EE100AC9
:10436000B8EE411ADFED5D1A81EE812A9FED5A1AEF
:10437000C0EE811A564D18352D68C5F3080501EEBB
:10438000105AB8EE411A31EE811AF7EE001A31EEEA
:10439000211A22EE010A5BE001EE100AB8EE411A82
:1043A000DFED4F1A81EE812A9FED4B1AC0EE811A84
:1043B000474D18352D68C5F3080501EE105AB8EEC3
:1043C000411A31EE811AF7EE001A31EE211A22EE6F
:1043D000010A3DE077E01DE001EE100AB8EE411A57
:1043E0009FED402AC2EE011A9FED3B1A80EE812A12
:1043F000374D18352D68C5F3080501EE105AB8EE93
:10440000411A32EE011AB7EE002A31EE021A21EEFD
:10441000810A1DE001EE100AB8EE411ADFED301AF4
:1044200081EE812A9FED2C1AC0EE811A284D183595
:104430002D68C5F3080501EE105AB8EE411A31EEA9
:10444000811AF7EE001A31EE211A22EE010A00BF9E
:1044500000BF1F4D18352D68C5F3462501EE105AD3
:10446000B8EE411AF7EE001A31EE211AC0EE011A29
:10447000BCEEE11A81ED001A154D18352D68C5F313
:10448000064501EE105AB8EE411AF7EE001A31EE69
:10449000211AC0EE011ABCEEE11A81ED011A0C4D91
:1044A00018352D68C5F3066501EE105AB8EE411AAD
:1044B000F7EE001A31EE211AC0EE011ABCEEE11A35
:1044C00081ED021A03E000250D604D608D6070BD26
:1044D000284402580090D003000000460024744C89
:1044E0000024744A001BB74B2DE9F0410446002517
:1044F000A8464FF00062D4E9001011400020134696
:1045000059404040014331D1606E48B1B0F5801F41
:104510000DD0B0F5001F11D0B0F5401F16D114E03A
:10452000FE48006840F40030FC49086010E00221B9
:1045300004F1080003F03AFB054609E0022104F10A
:10454000280003F0E5FB054602E001E0012500BF7D
:1045500000BF55B9F1482430006820F44010616E66
:104560000843EE492431086000E0A8464FF4807209
:10457000D4E9001011400020134659404040014347
:104580002ED1A06D05281BD2DFE800F0030A111818
:104590001900E248006840F40030E049086011E08A
:1045A000002104F1080003F001FB05460AE00021A8
:1045B00004F1280003F0ACFB054603E002E001E053
:1045C000012500BF00BF55B9D4482430006820F051
:1045D0000700A16D0843D1492431086000E0A846D6
:1045E0004FF48062D4E90010114000201346594076
:1045F000404001433DD1D4F8A400B0F5C00F24D011
:1046000007DC68B1B0F5001F11D0B0F5800F1FD1E5
:1046100014E0B0F5000F19D0B0F5200F18D116E056
:10462000BE48006840F40030BC49086012E0002138
:1046300004F1080003F0BAFA05460BE0002104F18A
:10464000280003F065FB054604E003E002E001E01A
:10465000012500BF00BF5DB9B0482C30006820F4D0
:104660006000D4F8A4100843AC492C31086000E085
:10467000A8464FF40062D4E900011040002113461F
:104680005840494008433DD1D4F8A800B0F1407FDC
:1046900024D007DC68B1B0F1807F11D0B0F1007F89
:1046A0001FD114E0B0F1806F19D0B0F1A06F18D114
:1046B00016E09A48006840F400309849086012E01B
:1046C000002104F1080003F071FA05460BE0002117
:1046D00004F1280003F01CFB054604E003E002E0BF
:1046E00001E0012500BF00BF5DB98C482C30006897
:1046F00020F0E060D4F8A810084388492C31086005
:1047000000E0A8464FF00073D4E9001019400020E3
:1047100059404040014328D1E06CA8B1102804D092
:10472000202809D0302810D10DE07C48006840F4E2
:1047300000307A4908600AE0022104F1080003F021
:1047400035FA054603E002E001E0012500BF00BFA5
:1047500055B972482030006820F03000E16C084301
:104760006E492031086000E0A8464FF48053D4E938
:1047700000101940002059404040014337D1E06DFE
:10478000B0F5005F1AD004DC50B1B0F5805F1ED1E7
:104790000DE0B0F5405F18D0B0F5804F17D115E0AF
:1047A0005E48006840F400305C49086011E0002178
:1047B00004F1080003F0FAF905460AE0002104F1CB
:1047C000280003F0A5FA054603E002E001E0012518
:1047D00000BF00BF55B951482430006820F4E040C4
:1047E000E16D08434D492431086000E0A8464FF4CC
:1047F0000053D4E9001019400020594040400143C3
:1048000035D1206EB0F5403F1ED007DC68B1B0F561
:10481000803F0BD0B0F5003F19D10EE0B0F5802FEE
:1048200013D0B0F5A02F12D110E012E0012104F155
:10483000080003F0BBF905460BE0012104F1280054
:1048400003F066FA054604E003E002E001E001251A
:1048500000BF00BF55B931482430006820F4E02083
:10486000216E08432D492431086000E0A8464FF42A
:104870008042D4E9000110400021134658404940CD
:10488000084337D1D4F8AC00B0F1405F1ED007DC4C
:1048900068B1B0F1805F0BD0B0F1005F19D10EE0CC
:1048A000B0F1804F13D0B0F1A04F12D110E012E060
:1048B000012104F1080003F079F905460BE001211C
:1048C00004F1280003F024FA054604E003E002E0C6
:1048D00001E0012500BF00BF5DB910482C30006821
:1048E00020F0E040D4F8AC1008430C492C310860AB
:1048F00000E0A8464FF40043D4E90001184000212D
:104900005840494008432AD1E06EB8B1B0F1805F09
:1049100006D0B0F1005F12D109E000002C4402582B
:10492000F948006840F40030F749086009E00121C7
:1049300004F1080003F03AF9054602E001E0012520
:1049400000BF00BF55B9F0482430006820F0405047
:10495000E16E0843EC492431086000E0A8464FF0BE
:104960008073D4E9001019400020594040400143B1
:1049700028D1A06CA8B1012804D0022809D00328AE
:1049800010D10DE0E048006840F40030DE490860D6
:104990000AE0022104F1080003F008F9054603E0EB
:1049A00002E001E0012500BF00BF55B9D648203024
:1049B000006820F00300A16C0843D349203108604F
:1049C00000E0A8464FF48003D4E90010194000200D
:1049D0005940404001437DD1CC48006840F480708C
:1049E000CA490860FEF70AFB064606E0FEF706FB2A
:1049F000801B642801D9032505E0C448006800F441
:104A000080700028F2D000BF85BBBF4844300068EA
:104A100000F44070B4F8B01001F44071884213D033
:104A2000B9484430006820F44077B7484430006803
:104A300040F48030B449443108600846006820F4EE
:104A40008030086008460760D4F8B000B0F5807F79
:104A500015D1FEF7D3FA064609E0FEF7CFFA801B20
:104A600041F28831884202D9032507E038E0A648A0
:104A700044300068C0F340000028EED000BF55BBB2
:104A800000BFB4F8B00000F44070B0F5407F0ED124
:104A90009D481C38006820F47C519D4AD4F8B00031
:104AA000104041EA101098491C39086007E0964808
:104AB0001C38006820F47C5093491C3908609248E7
:104AC00044300068B4F8B010C1F30B0108438E49BC
:104AD000443101E005E001E0086002E0A84600E0A2
:104AE000A8460122D4E90001104000211346584095
:104AF0004940084330D1A06F18281AD005DC48B1CE
:104B0000082808D0102817D10CE0202812D0282817
:104B100012D110E012E0012104F1080003F046F880
:104B200005460BE0012104F1280003F0F1F80546E9
:104B300004E003E002E001E0012500BF00BF55B939
:104B400071482830006820F03800A16F08436E4992
:104B50002831086000E0A8460223D4E9001019407B
:104B6000002059404040014329D1606F062816D2E9
:104B7000DFE800F003040B12131412E0012104F12A
:104B8000080003F013F805460BE0012104F12800AA
:104B900003F0BEF8054604E003E002E001E0012571
:104BA00000BF00BF55B958482830006820F0070002
:104BB000616F084354492831086000E0A846042288
:104BC000D4E90010114000201346594040400143F1
:104BD0002BD1D4F89000062816D2DFE800F00304A9
:104BE0000B12131412E0012104F1080002F0DEFFA1
:104BF00005460BE0012104F1280003F089F8054681
:104C000004E003E002E001E0012500BF00BF5DB960
:104C10003D482C30006820F00700D4F8901008437D
:104C200039492C31086000E0A8462023D4E900016E
:104C30001840002158404940084337D1D4F88C002F
:104C4000B0F1405F1ED007DC68B1B0F1805F0BD0DF
:104C5000B0F1005F19D10EE0B0F1804F13D0B0F188
:104C6000A04F12D110E012E0002104F1080002F080
:104C70009DFF05460BE0022104F1280003F048F8EF
:104C8000054604E003E002E001E0012500BF00BFAB
:104C90005DB91D482830006820F0E040D4F88C1041
:104CA000084319492831086000E0A8464023D4E9A8
:104CB0000010194000205940404001433CD1D4F835
:104CC0009800B0F5406F25D007DC68B1B0F5806F73
:104CD0000BD0B0F5006F20D10EE0B0F5805F1AD098
:104CE000B0F5A05F19D117E019E0002104F1080028
:104CF00002F05CFF054612E0022104F1280003F0F7
:104D000007F805460BE000002C4402580048025802
:104D1000FFFCFF0F03E002E001E0012500BF00BF40
:104D20004DB9FE48006820F4E050D4F898100843CC
:104D3000FA49086000E0A8468023D4E90010194031
:104D4000002059404040014335D1D4F89C00B0F5D3
:104D5000C04F1ED007DC68B1B0F5005F0BD0B0F5D6
:104D6000804F19D10EE0B0F5004F13D0B0F5204FB1
:104D700012D110E012E0002104F1080002F016FF49
:104D800005460BE0022104F1280002F0C1FF0546B0
:104D900004E003E002E001E0012500BF00BF4DB9DF
:104DA000DE48006820F46040D4F89C100843DB49DA
:104DB000086000E0A8460823D4E90001184000215B
:104DC00058404940084317D1D4F88000B0F5805FBF
:104DD00007D1022104F1280002F09AFF08B14FF038
:104DE0000108CE48001F006820F44050D4F880101D
:104DF0000843CA49091F08601023D4E9000118407C
:104E0000002158404940084315D1D4F89400B0F52A
:104E1000807F07D1022104F1280002F079FF08B158
:104E20004FF00108BD48006820F44070D4F8941099
:104E30000843BA4908604FF40023D4E90001184040
:104E4000002158404940084327D1D4F8A00030B190
:104E5000B0F5803F0AD0B0F5003F0FD10DE0002142
:104E600004F1080002F0A2FE054609E0022104F167
:104E7000280002F04DFF054602E001E0012500BFD9
:104E800000BF4DB9A548006820F44030D4F8A01008
:104E90000843A249086000E0A8464FF48023D4E903
:104EA0000001184000215840494008432DD1D4F852
:104EB0008400B0F5801F06D0B0F5001F0CD0B0F50F
:104EC000401F11D10FE095482C38006840F40030A5
:104ED00092492C39086009E0012104F1280002F010
:104EE00017FF054602E001E0012500BF00BF5DB9E4
:104EF0008A48001F006820F44010D4F8841008434A
:104F00008649091F086000E0A8464FF48032D4E9C2
:104F1000000110400021134658404940084325D164
:104F2000206D18B1B0F5803F10D108E07B482C38D7
:104F3000006840F4003079492C39086008E002210B
:104F400004F1080002F032FE054601E0012500BF31
:104F500000BF55B971480C38006820F48030216DCD
:104F600008436E490C39086000E0A8464FF0005332
:104F7000D4E900101940002059404040014307D1B6
:104F8000022104F1280002F0C3FE08B14FF001082D
:104F90004FF40032D4E9000110400021134658407C
:104FA0004940084327D1E06FA0B1B0F5807F06D01B
:104FB000B0F5007F0CD0B0F5407F0CD109E0574828
:104FC0002C38006840F4003054492C39086004E063
:104FD00003E002E001E0012500BF00BF55B94F48E2
:104FE000001F006820F44070E16F08434B49091F1F
:104FF000086000E0A8464FF48012D4E90010114088
:105000000020134659404040014309D14348083825
:10501000006820F00040216F0843404908390860CB
:105020004FF40013D4E900011840002158404940D2
:10503000084309D139480838006820F08070A16E13
:1050400008433649083908604FF08043D4E900101E
:105050001940002059404040014311D100BF2F4862
:105060004838006820F400402C4948390860084658
:105070000068D4F8B410084328494839086000BFD4
:105080004FF00042D4E9000110400021134658407F
:105090004940084309D121480C38006820F04050AD
:1050A000616D08431D490C3908604FF40002D4E9D2
:1050B00000101140002013465940404001430AD1DE
:1050C0001648001F006820F44000D4F888100843F8
:1050D0001249091F08600122002160681040494000
:1050E0005040014306D104F1080002F05FFD05467F
:1050F00005B1A84602220021606810404940504096
:10510000014307D1012104F1080002F04FFD0546DB
:1051100005B1A84604230020616801E05844025804
:105120001940042240405140084307D1022104F1B4
:10513000080002F03BFD054605B1A8460823002003
:1051400061681940082240405140084307D10021BE
:1051500004F1280002F0DCFD054605B1A846102345
:10516000002061681940102240405140084307D197
:10517000012104F1280002F0CBFD054605B1A84647
:10518000202200216068104049405040014307D16F
:10519000022104F1280002F0BBFD054605B1A84636
:1051A000B8F1000F02D10020BDE8F0810120FBE73B
:1051B0002DE9F04104460D4614B90120BDE8F08107
:1051C000BD48006800F00F00A8420ED2BA4800683F
:1051D00020F00F002843B84908600846006800F036
:1051E0000F00A84201D00120E8E7207800F0040079
:1051F00004280ED1B1492069096801F07001884284
:1052000007D9AE48006820F0700021690843AB4917
:105210000860207800F00800082811D1A749091D6E
:105220006069096801F07001884209D9A348001D2E
:10523000006820F0700061690843A049091D0860FA
:10524000207800F01000102811D19C49091DA06998
:10525000096801F4E061884209D99848001D006896
:1052600020F4E060A16908439449091D0860207892
:1052700000F02000202811D190490831E069096828
:1052800001F07001884209D98C480830006820F08C
:105290007000E1690843894908310860207800F00E
:1052A000020002280ED18549E068096801F00F016B
:1052B000884207D98148006820F00F00E168084360
:1052C0007E490860207800F00100002850D07B481B
:1052D000006820F47060A16808437849086060683D
:1052E000022807D1754818380068C0F34040F8B963
:1052F000012063E76068032807D170481838006808
:10530000C0F34060A0B9012058E76068012807D1C8
:105310006A4818380068C0F3002048B901204DE7FA
:10532000664818380068C0F3800008B9012045E7D6
:1053300062480838006820F00700616808435F4948
:1053400008390860FDF75AFE064608E0FDF756FEEC
:10535000801B41F28831884201D903202EE757484B
:105360000838006800F038006168B0EBC10FEDD17B
:10537000207800F0020002280ED15049E068096848
:1053800001F00F01884207D24C48006820F00F005E
:10539000E1680843494908604748006800F00F0089
:1053A000A8420ED94448006820F00F002843424923
:1053B00008600846006800F00F00A84201D00120F4
:1053C000FCE6207800F0040004280ED13B49206957
:1053D000096801F07001884207D23848006820F05F
:1053E00070002169084335490860207800F0080002
:1053F000082811D13149091D6069096801F070015F
:10540000884209D22D48001D006820F070006169B3
:1054100008432A49091D0860207800F01000102870
:1054200011D12649091DA069096801F4E06188428B
:1054300009D22248001D006820F4E060A1690843F9
:105440001E49091D0860207800F02000202811D195
:105450001A490831E069096801F07001884209D2EF
:1054600016480830006820F07000E16908431349CD
:105470000831086000F0ACF810490968C1F3032155
:105480000F4A515C01F01F0120FA01F70B48006838
:1054900000F00F001146085C00F01F0027FA00F032
:1054A000084908600848076008480068FDF7E8FDFB
:1054B0008046404682E60000002000521844025810
:1054C00078D30008200000241C00002414000024CD
:1054D0003F220260174A126802F007024260154A32
:1054E0000832126802F470628260124A083212684E
:1054F00002F00F02C2600F4A0832126802F0700216
:1055000002610C4A0C32126802F070024261094AD0
:105510000C32126802F4E0628261064A10321268AC
:1055200002F07002C261044A126802F00F020A60BF
:1055300070470000104402580020005210B500F0DF
:1055400047F80D490968C1F303210C4A515C01F089
:105550001F0120FA01F40848006800F00F0011460E
:10556000085C00F01F0024FA00F0054908600548B7
:1055700004600846006810BD1844025878D300083B
:10558000200000241C00002400B5FFF7D7FF0549C8
:105590000968C1F30211044A515C01F01F01C840BF
:1055A00000BD00001C44025878D3000800B5FFF786
:1055B000C5FF05490968C1F30221044A515C01F0A5
:1055C0001F01C84000BD00001C44025878D30008E9
:1055D000F0B5824E366806F0380636B1082E15D082
:1055E000102E15D0182E7DD114E07C4E103E36685A
:1055F000C6F3401646B1794E103E3668C6F3C10771
:10560000774E26FA07F000E07548E5E07548E3E0DC
:105610007548E1E0714E1836366806F003046F4EA7
:1056200018363668C6F305116C4E1C36366806F01F
:1056300001056A4E24363668C6F3CC0616FB05F61D
:1056400001EE106AB8EE410A002971D024B1012C94
:1056500050D0022C6DD16DE0604E103E3668C6F31E
:1056600040163EB35D4E103E3668C6F3C1075C4E31
:1056700026FA07F301EE103AF8EE411A01EE101A7D
:10568000B8EE411A81EE812A9FED581AC0EE011A38
:10569000524E20363668C6F3080601EE106AB8EEA0
:1056A000411A31EE811AF7EE001A31EE211A62EE3C
:1056B000010A1EE001EE101AB8EE411ADFED4C1A95
:1056C00081EE812A9FED491AC0EE011A434E203621
:1056D0003668C6F3080601EE106AB8EE411A31EEDC
:1056E000811A00E076E0F7EE001A31EE211A62EE40
:1056F000010A5BE001EE101AB8EE411A9FED3D2A57
:10570000C2EE011A9FED391A80EE012A334E20367F
:105710003668C6F3080601EE106AB8EE411A32EE9A
:10572000011AB7EE002A31EE021A61EE810A3DE05D
:105730004EE01DE001EE101AB8EE411ADFED2E1A10
:1057400081EE812A9FED291AC0EE011A234E2036E0
:105750003668C6F3080601EE106AB8EE411A31EE5B
:10576000811AF7EE001A31EE211A62EE010A1DE0ED
:1057700001EE101AB8EE411A9FED1E2AC2EE011A70
:105780009FED1A1A80EE012A144E20363668C6F3B1
:10579000080601EE106AB8EE411A32EE011AB7EEB1
:1057A000002A31EE021A61EE810A00BF00BF0B4EE3
:1057B00020363668C6F34626721C01EE102AB8EE73
:1057C000411AC0EE811ABCEEE11A11EE100A00E097
:1057D000002001E0034800BF00BFF0BD10440258A4
:1057E0000090D00300093D0000366E010000004625
:1057F0000024744C0024744A001BB74B2DE9F04779
:10580000044614B90120BDE8F087207800F00100BB
:10581000002870D0F948006800F03808F7481830C0
:10582000D0F80090B8F1100F06D0B8F1180F0FD1D2
:1058300009F0030002280BD1F04810380068C0F3CB
:10584000404000286AD06068002867D10120DAE76C
:1058500000BF6068B0F5803F08D1E84810380068A4
:1058600040F48030E549103908602EE0606868B97E
:10587000E2481038006820F48030E04910390860B0
:105880000846006820F4802008601EE06068B0F5DB
:10589000A02F0DD1D9481038006840F48020D74996
:1058A000103908600846006840F4803008600CE059
:1058B000D2481038006820F48030D0491039086090
:1058C0000846006820F48020086000BF606898B136
:1058D000FDF794FB054606E0FDF790FB401B6428AE
:1058E00001D903208FE7C54810380068C0F3404055
:1058F0000028F1D012E012E0FDF780FB054606E03B
:10590000FDF77CFB401B642801D903207BE7BB48E3
:1059100010380068C0F340400028F1D100BF207863
:1059200000F00200022879D1B448006800F038087D
:10593000B2481830D0F80090B8F1000F05D0B8F197
:10594000180F35D109F0030088BBAC481038006847
:10595000C0F3800018B1E06808B9012053E7A748F8
:105960001038006820F01900E1680843A349103995
:105970000860FDF743FB054606E0FDF73FFB401BD3
:10598000022801D903203EE79C4810380068C0F384
:1059900080000028F1D099480C38006820F0FE40C3
:1059A000217C40EA016095490C39086045E0FFE739
:1059B000E06838B391481038006820F01900E168B9
:1059C00008438E4910390860FDF718FB054606E0CC
:1059D000FDF714FB401B022801D9032013E7874879
:1059E00010380068C0F380000028F1D083480C38DC
:1059F000006820F0FE40217C40EA01607F490C39BC
:105A000008601AE07D481038006820F001007B49EA
:105A100010390860FDF7F2FA054607E00EE0FDF7E1
:105A2000EDFA401B022801D90320ECE67348103838
:105A30000068C0F380000028F1D100BF207800F09A
:105A4000100010286FD16D48006800F038086B48CE
:105A50001830D0F80090B8F1080F06D0B8F1180F40
:105A60001CD109F00300012818D1644810380068DF
:105A7000C0F3002020B1E069802801D00120C2E6F7
:105A800000BF5E48001F006820F07C5094F8201092
:105A900040EA01605949091F086043E0E06938B3F2
:105AA00056481038006840F08000544910390860AA
:105AB000FDF7A4FA054606E0FDF7A0FA401B022810
:105AC00001D903209FE64D4810380068C0F300203C
:105AD0000028F1D000BF4948001F006820F07C502A
